{
  "contractName": "ProductItem",
  "abi": [
    {
      "inputs": [
        {
          "internalType": "contract Marketplace",
          "name": "_parentContract",
          "type": "address"
        },
        {
          "internalType": "uint256",
          "name": "_priceInWei",
          "type": "uint256"
        },
        {
          "internalType": "uint256",
          "name": "_index",
          "type": "uint256"
        }
      ],
      "stateMutability": "nonpayable",
      "type": "constructor"
    },
    {
      "inputs": [],
      "name": "index",
      "outputs": [
        {
          "internalType": "uint256",
          "name": "",
          "type": "uint256"
        }
      ],
      "stateMutability": "view",
      "type": "function"
    },
    {
      "inputs": [],
      "name": "priceInWei",
      "outputs": [
        {
          "internalType": "uint256",
          "name": "",
          "type": "uint256"
        }
      ],
      "stateMutability": "view",
      "type": "function"
    }
  ],
  "bytecode": "0x608060405234801561001057600080fd5b506040516101693803806101698339818101604052606081101561003357600080fd5b81019080805190602001909291908051906020019092919080519060200190929190505050816000819055508060018190555082600260006101000a81548173ffffffffffffffffffffffffffffffffffffffff021916908373ffffffffffffffffffffffffffffffffffffffff16021790555050505060b1806100b86000396000f3fe6080604052348015600f57600080fd5b506004361060325760003560e01c80632986c0e51460375780633c8da588146053575b600080fd5b603d606f565b6040518082815260200191505060405180910390f35b60596075565b6040518082815260200191505060405180910390f35b60015481565b6000548156fea26469706673582212202205d357154df1b3b858e15ef70bb67afd008a776b37a8be3ba187b4fd00108b64736f6c63430006010033",
  "source": "pragma solidity 0.6.1; \r\nimport \"./Marketplace.sol\";\r\ncontract ProductItem {\r\n    uint public priceInWei;\r\n    uint public index;\r\n    \r\n    Marketplace parentContract;\r\n    \r\n    constructor(Marketplace _parentContract, uint _priceInWei, uint _index) public {\r\n        priceInWei = _priceInWei;\r\n        index = _index;\r\n        parentContract = _parentContract;\r\n    }\r\n    \r\n}",
  "sourcePath": "E:\\3. Learning\\6. Blockchain\\Do An Blockchain\\tokenization3 - Copy\\tokenization-marketplace\\contracts\\ProductItem.sol",
  "compiler": {
    "name": "solc",
    "version": "0.6.1+commit.e6f7d5a4.Emscripten.clang"
  },
  "schemaVersion": "3.4.3",
  "updatedAt": "2021-10-24T17:24:50.911Z",
  "devdoc": {
    "methods": {}
  },
  "userdoc": {
    "methods": {}
  }
}